S0130000536D617274486F6D6533322E737265631C
S11300000C9497010C94B4010C94B4010C94B401B5
S11300100C94B4010C94B4010C94B4010C94AA0291
S11300200C94B4010C94B4010C94B4010C94B40178
S11300300C94B4010C94B4010C94B4010C94B40168
S11300400C94B4010C94B4010C94B4010C94B40158
S11300500C94B4013C68313E323030204F4B3C2F7D
S113006068313E002F66726F6D6465766963652F33
S113007067657469702E7068703F706173733D3783
S1130080733664372664693D3046302D3030302D68
S11300904630462D3030302D304630266F72647035
S11300A03D713739747933386A636C6435796762C2
S11300B068676B6C37396C006C656E6B6572616E6A
S11300C0697374656B2E636F6D000A3C2F707265E3
S11300D03E3C62723E3C68723E000A636865636B34
S11300E020726573756C743A203C61206872656691
S11300F03D687474703A2F2F7475786772617068F4
S11301006963732E6F72672F6367692D62696E2F3F
S113011075706C643E687474703A2F2F74757867C8
S1130120726170686963732E6F72672F6367692DDC
S113013062696E2F75706C643C2F613E000A4164E5
S113014064726573733A20000A4E756D626572209D
S11301507375636365737366756C20646174612081
S113016075706C6F61647320746F207765623A20D8
S1130170004E756D626572206F6620646174612043
S113018075706C6F6164732073746172746564203C
S113019062792070696E673A20002028303D6E6FC6
S11301A0206572726F72290A004572726F72206341
S11301B06F64653A200077616974696E6720666FC1
S11301C07220444E5320616E737765722E0A0020AC
S11301D0746F20616E73776572206172702E0A00ED
S11301E077616974696E6720666F722047572000D3
S11301F03C68323E77656220636C69656E74207377
S113020074617475733C2F68323E0A3C7072653EAB
S11302100A00485454502F312E3020323030204FB1
S11302204B0D0A436F6E74656E742D547970653A84
S113023020746578742F68746D6C0D0A5072616750
S11302406D613A206E6F2D63616368650D0A0D0A56
S1130250000D0A436F6E74656E742D547970653A9F
S1130260206170706C69636174696F6E2F782D778B
S113027077772D666F726D2D75726C656E636F6422
S113028065640D0A0D0A00436F6E74656E742D4C1F
S1130290656E6774683A20000D0A557365722D41C6
S11302A067656E743A207467722F312E310D0A41DE
S11302B063636570743A202A2F2A0D0A000D0A0020
S11302C020485454502F312E310D0A486F73743A1C
S11302D02000504F535420000D0A557365722D4170
S11302E067656E743A207467722F312E310D0A419E
S11302F063636570743A20746578742F68746D6CE8
S11303000D0A0D0A0020485454502F312E310D0A85
S1130310486F73743A2000474554200000010800D8
S11303200604000145000082000040002000112462
S11303301FBECFE5D8E0DEBFCDBF10E0A0E6B0E041
S1130340ECEAF0E202C005900D92A63AB107D9F7A3
S113035023E0A6EAB0E001C01D92AF39B207E1F78D
S11303600E94C6020C9454100C9400002091AD001D
S113037021110CC021E02093AD00FC01AEEAB0E0F5
S1130380049621912D93E817F907D9F70895883C2D
S1130390910529F48091AB008F5F8093AB000895A1
S11303A0613051F4FA01A6E5B3E04A5F5F4F8191F1
S11303B08D93E417F507D9F7089542E152E060E020
S11303C070E082EB90E00E946A090895CF92DF9278
S11303D0EF92FF920F931F93CF93DF93CDB7DEB7C6
S11303E061970FB6F894DEBF0FBECDBF7C010E94AB
S11303F0DD0140EF51E0BC01C7010E946A09BC0164
S11304009091A7009130E9F440EE51E0C7010E94B9
S11304106A096C010AE02EE244E060E670E0CE0175
S113042001960E947A0FAE014F5F5F4FB601C7017C
S11304300E9496094FEC51E0BC01C7010E946A0971
S11304407AC08091A800813031F546EB51E0C701B4
S11304500E946A098C010E94C503D82E49EA51E022
S1130460B801C7010E946A098C014AE0BE016F5FAE
S11304707F4F8D2D90E00E941710AE014F5F5F4FAC
S1130480B801C7010E9496094AE951E0BC01C701BD
S11304900E946A0950C041E751E0C7010E946A09FD
S11304A08C018091AC004AE0BE016F5F7F4F90E009
S11304B00E941710AE014F5F5F4FB801C7010E9441
S11304C0960948E451E0BC01C7010E946A098C0105
S11304D08091AB004AE0BE016F5F7F4F90E00E94C5
S11304E01710AE014F5F5F4FB801C7010E94960914
S11304F04DE351E0BC01C7010E946A098C0180915F
S1130500A6004AE0BE016F5F7F4F90E00E94171083
S1130510AE014F5F5F4FB801C7010E9496094AEDD3
S113052050E0BC01C7010E946A094AEC50E0BC01DA
S1130530C7010E946A0961960FB6F894DEBF0FBE28
S1130540CDBFDF91CF911F910F91FF90EF90DF907E
S1130550CF9008951F920F920FB60F9211248F938C
S11305608091A9008F5F8093A9008091A9008333B3
S113057038F01092A9008091AA008F5F8093AA009E
S11305808F910F900FBE0F901F9018958FEF8ABB1D
S1130590C0E08C2F8A95F1F788E690E00E94A805C8
S11305A082E00E94A205CA95F1F7789466E774E0A8
S11305B084E10E948505B99A64E670E088E690E0DB
S11305C00E94C60A80E590E00E94DB0A86EB91E077
S11305D00E944A0D6894CC24C1F8DD24D39462EBC4
S11305E070E08AE892E00E949D06EC01BC0182EB77
S11305F090E00E944F0D8C01209709F06FC080910C
S1130600A700811109C040ED51E06D2D80E690E016
S11306100E942D0CD092A7000E94260C81110BC0C1
S11306208091A700813039F4C092A7008091A8007E
S1130630882349F019C08091A800811115C08091C8
S1130640A700823009F50E944D06882341F21092DA
S1130650AA00D092A80046E553E068E770E082EB78
S113066090E00E94D303BBCF813051F40E94C203B7
S1130670882331F0C092A80082E593E00E94C80369
S11306808091A800823041F08091AA00823008F461
S1130690A6CF1092A800A3CF8091AD008130D9F4E9
S11306A01092AA00C092AD008091AC008F5F80933D
S11306B0AC000F2EF6E5EF2EF3E0FF2EF02D02E551
S11306C013E027EC31E048EB50E06DE373E084E69F
S11306D090E00E94060D1092AD0081CF009731F496
S11306E0BE0182EB90E00E94580479CF44E050E0D0
S11306F0BC016E547F4F8AE890E00E94FE0F892B64
S113070059F00E94DD0144E550E0BC0182EB90E029
S11307100E946A098C0130C042E050E0B8016A547A
S11307207F4F8FE890E00E94FE0F892B41F40E94D6
S1130730DD0182EB90E00E94E6018C011DC04AE0DD
S113074050E0B80169547F4F82E990E00E94FE0FA7
S1130750892B91F448E050E0B8016E537F4F8DE946
S113076090E00E94FE0F892B39F4C80186539F4FF5
S11307700E94C80F8093A600B80182EB90E00E940B
S1130780190B2DCF80916103089580915C03089526
S1130790EDE5F3E0DC0121E633E081918D93E2178E
S11307A0F307D9F70895EF92FF920F931F93CF9316
S11307B0DF93EC017B018A01109261030E944D06D4
S11307C0811105C084E080935C0381E06AC01092CB
S11307D05C03609162036F5F6093620370E0706E0C
S11307E025E330E04EE650E0CE010E943F0B8091BD
S11307F062038BA781E08CA7FE01BD96CE01C6964D
S11308001192E817F907E1F781E08FA7F7019081CA
S11308109923C9F02CE06DE030E09E3241F4DE0112
S1130820A20FB11D81509A968C93262F832F9191FC
S1130830DE01A60FB11D9A969C938F5F6F5F908126
S11308409111EBCF03C081E02CE06DE0FE01E20FDB
S1130850F11D815082A7FE01E60FF11D12A681E071
S1130860860FFE01E80FF11D12A682E0860FFE013D
S1130870E80FF11D81E082A793E0960FFE01E90FD6
S1130880F11D12A694E0960FFE01E90FF11D82A757
S113089089EF860F8AA76B5F70E0CE010E94A50BDB
S11308A080E0DF91CF911F910F91FF90EF90089519
S11308B0FC016634710508F471C083A1853309F025
S11308C06FC084A1803E09F06DC085A19091620340
S11308D089136AC093A5891369C085A58F78803868
S11308E029F081E080935C0380E0089592A5945FF1
S11308F061537109DF01A90FB11D9A968C91807C17
S113090061F09E5F0FC09F5FDF01A90FB11D9A9632
S11309108C91811102C09F5F05C0292F30E02617FA
S1130920370788F3292F30E0DF01A20FB31F9B960E
S11309308C91813099F088E0890FDF01A80FB11DF7
S11309409B968C91965F980F292F30E026173707D6
S113095088F283E080935C0380E00895DF01A20FB6
S1130960B31FD3962C91243029F082E080935C034A
S113097080E008952AE0290F30E0265D3F4FE20F22
S1130980F31FADE5B3E021E633E091919D93A21707
S1130990B307D9F791E090936103089580E0089537
S11309A080E0089580E0089580E0089580E008954F
S11309B0C298962F6F71862B8FB9779BFECF1FB885
S11309C0779BFECF99231CF41FB8779BFECFC29A66
S11309D08FB10895C2986F71862B8FB9779BFECF24
S11309E04FB9779BFECFC29A0895FB01C2982AE3C0
S11309F02FB9779BFECF009761F0DF01A80FB91FD5
S1130A001FB8779BFECF9FB19193EA17FB07C1F7FD
S1130A1001C0DF011C92C29A0895FB01C2982AE723
S1130A202FB9779BFECF08C09F01280F391F9191E2
S1130A309FB9779BFECF03C00097B1F703C0E217BD
S1130A40F307A9F7C29A08951F93CF93DF93182F42
S1130A501076C12FD0E02091650330E0C217D30790
S1130A60B1F043E06FE180EA0E94EA04AE015595DB
S1130A70479555954795559547955595479555955A
S1130A8047956FE180E80E94EA0410936503DF91C3
S1130A90CF911F910895CF93C82F0E9424056C2FE6
S1130AA080E00E94D804CF910895CF93DF93C82F9C
S1130AB0D62F0E9424054D2F6C2F80E40E94EA0457
S1130AC0DF91CF910895CF93682F84ED0E9455054F
S1130AD061E082ED0E9455058AEE0E944B0580FD7F
S1130AE0FBCF60E082ED0E94550589ED0E944B0525
S1130AF0C82F88ED0E944B052C2F30E0322F22277F
S1130B00A901482BCA01CF910895CF93DF93D62F23
S1130B10C72F682F84ED0E9455056D2F86ED0E9426
S1130B2055056C2F87ED0E945505C8E203C08C2F34
S1130B308A95F1F78AEE0E944B0580FDF8CFDF918C
S1130B40CF910895682F677085E70E945505089531
S1130B50CF93DF93EC01BA9AC29A87B3806A87BBBA
S1130B60BE98C598C79880E58DB9709A4FEF60E03C
S1130B708FEF0E94EA0480E090E00197F1F7109271
S1130B8064031092630360E088E00E94550560E00E
S1130B9089E00E94550560E08CE00E94550560E004
S1130BA08DE00E9455056FEF8AE00E94550569E1CA
S1130BB08BE00E94550560E084E00E9455056AE1DF
S1130BC085E00E9455056FEF86E00E9455056FE1B0
S1130BD087E00E94550560EB88E30E9455056FE3AA
S1130BE088E20E94550560E389E20E94550569EF99
S1130BF080E30E94550567EF81E30E9455056DE08F
S1130C0080EC0E94550560E081EC0E94550542E3AA
S1130C1062EC80E80E94EA0462E186EC0E945505D9
S1130C206CE087EC0E94550562E184EC0E94550556
S1130C306CED8AEC0E94550565E08BEC0E9455052D
S1130C40688184EE0E945505698185EE0E945505F0
S1130C506A8182EE0E9455056B8183EE0E945505E0
S1130C606C8180EE0E9455056D8181EE0E945505D0
S1130C7060E071E080E10E9485058FE10E94240517
S1130C8040EC6BE180E80E94EA0444E06FE180E814
S1130C900E94EA04DF91CF91089581E10E946305E7
S1130CA092FB882780F908950F931F93CF93DF93C6
S1130CB0EC018B016FE180E00E94D80483FDFACF40
S1130CC08CE10E944B0581FF13C040E86FE180E88E
S1130CD00E94EA0440E86FE180EA0E94EA0442E0EC
S1130CE06CE180EA0E94EA0480E395E70197F1F75A
S1130CF060E082E00E9455056AE183E00E945505A8
S1130D006C2F86E00E945505CE01965E692F87E020
S1130D100E94550540E060E08AE70E94EA04B801B9
S1130D20CE010E940D0548E06FE180E80E94EA04CC
S1130D30DF91CF911F910F910895AF92BF92CF92FF
S1130D40DF92EF92FF920F931F93CF93DF936C0187
S1130D507B0189E30E944B05882309F464C06091F8
S1130D606303C091640380E00E9455056C2F81E009
S1130D700E94550560E08AE30E94D804C82F60E011
S1130D808AE30E94D804D0E0D82BD0936403C093A4
S1130D90630360E08AE30E94D804B82E60E08AE32B
S1130DA00E94D804A82E60E08AE30E94D804082F89
S1130DB060E08AE30E94D80407FF11C081E0C81AEA
S1130DC0D1080B2D10E01A2904501109C016D106C0
S1130DD008F48601B701C8010E94F50402C000E0CE
S1130DE010E07E0181E0E81AF108E1148AE1F806D6
S1130DF04CF06FEF8CE00E94550569E18DE00E9494
S1130E00550509C06C2F61508CE00E9455056F2D6B
S1130E108DE00E94550540E46EE180E80E94EA04FA
S1130E20802F912F02C080E090E0DF91CF911F913D
S1130E300F91FF90EF90DF90CF90BF90AF90089507
S1130E40CF92DF92EF92FF920F931F93CF93DF9392
S1130E50EA01890190917E03891761F0E0917B0397
S1130E60F0917C0340E050E060E070E084EF91E0BA
S1130E7009955EC061115CC02D30310508F458C07D
S1130E80E0907B03F0907C03E114F10409F450C07A
S1130E90C0906F03D0907003F601E40FF51F8085B6
S1130EA090E00E94E90F892BB9F1F601EC0FFD1FC8
S1130EB0218530E0205331092A30310580F5F601CF
S1130EC0EC0FFD1F838590E0AC01405351094A307B
S1130ED0510540F5C901880F991F220F331F220FB6
S1130EE0331F220F331F280F391FF601EC0FFD1F8C
S1130EF0828590E0C097280F391FC901880F991F78
S1130F00220F331F220F331F220F331F280F391FC5
S1130F10CA01820F931F08C080E090E005C080E002
S1130F2090E002C080E090E0A801BE01F7010995BD
S1130F3080E0DF91CF911F910F91FF90EF90DF90B0
S1130F40CF900895CF92DF92EF92FF920F931F9369
S1130F50CF93DF938C01DB01413061F46B0188E0B6
S1130F60C81AD108E12CF12CE1E1CE0ED11CE11C10
S1130F70F11C11C0423061F46B01F8E0CF1AD108C2
S1130F80E12CF12C86E0C80ED11CE11CF11C03C03D
S1130F90C12CD12C7601A230B10508F1F8013196AB
S1130FA09D01EF012197488150E060E070E0762FC9
S1130FB0652F542F44278081482BC40ED51EE61E6E
S1130FC0F71E2250310932962230310550F7CD01F7
S1130FD002978E7F0296080F191FA170BB27AB2BB7
S1130FE069F0F801808190E0A0E0B0E0BA2FA92F69
S1130FF0982F8827C80ED91EEA1EFB1EA701662754
S11310007727411551056105710571F0EE24FF2420
S1131010C40ED51EE61EF71EA701662777274115C5
S113102051056105710591F7C60180959095DF9191
S1131030CF911F910F91FF90EF90DF90CF90089583
S1131040009741F026E0FC01A7E9B3E001900D927E
S11310502A95E1F70895FC01328DFB0120813213BA
S11310600DC0DC015B9631964E963D912191321371
S113107007C0A817B907C9F781E0089580E008956B
S113108080E0089569327105C8F0FC012485283098
S1131090B9F425852630B1F436A120919303321397
S11310A013C0B796A4E9B3E08A9631912D91321317
S11310B00DC0E817F907C9F781E0089580E00895A5
S11310C080E0089580E0089580E0089580E0089528
S11310D0CF93DF93FC016A327105E0F08485883098
S11310E0D9F4858581111AC096859534C1F4268D6D
S11310F090919303291313C0DF015F96C4E9D3E0F1
S1131100B2962D91999129130AC0AE17BF07C9F75A
S113111081E005C080E003C080E001C080E0DF9191
S1131120CF910895CF93DF93FC01C7E9D3E09C01ED
S11311302A5F3F4FD9018C91819389918D93E21756
S1131140F307C9F7DF91CF910895CF93DF93EC01B3
S1131150188E198E80E48C8B1D8A8E8B40E064E19E
S113116070E0CE010E960E94A207988F898FDF91BE
S1131170CF910895CF93DF939C01DC015E96C3E980
S1131180D3E0FC017A96AC014E5D5F4F90819D9354
S113119099919193A417B507C9F7C9010E94A508AD
S11311A0DF91CF9108959C01265D3F4FFC01BE96CF
S11311B0D9018E91680F711D82916083442311F0CF
S11311C08C9301C01C92672F77272E173F0789F74E
S11311D00895CF93DF93EC018CA19AA19CA38AA3D9
S11311E08DA19BA19DA38BA3CE010E94D3081AAA13
S11311F01BAA80E58EA7DF91CF9108950F931F93CB
S1131200CF93DF938C010E949208E8011C8A82E04C
S11312108D8BD801909627E933E0F8017696A801E2
S11312204A5D5F4F80818D93E90189919E0181938D
S1131230A417B507B9F7A3E9B3E0F8017C969801C0
S1131240265D3F4F8081EA018993AE018D918193A0
S1131250C217D307B9F7B8018AE290E00E94540696
S1131260DF91CF911F910F9108950F931F93CF9307
S1131270DF93EC018B010E949208CE010E94BA0810
S11312801AA29CA1983F18F02DA12F5F2DA3985F5F
S11312909CA3BE01C8010E945406DF91CF911F9107
S11312A00F910895FC01208930E0322F2227818993
S11312B0282B2451310986A582958F70A90164E0F9
S11312C0869F401951091124CA01992314F480E01E
S11312D090E008959A012F5F3F4FFA01449144230F
S11312E069F0FB01F696DC01AE0FBF1FF9014D93C7
S11312F06F5F7F4F449131964111F9CFCB0108952F
S1131300222391F0A42FB52FAB014A5C5F4FFC015F
S1131310E40FF51F922F3D9131939150E1F7215045
S1131320620F711D6F5F7F4FCB010895FA01019029
S11313300020E9F731979F01241B350B0E94800997
S11313400895EF92FF920F931F93CF93DF9300D0F2
S113135000D01F92CDB7DEB790917E038913A8C049
S113136080917D03811130C000916F03109170034F
S113137047E153E060E070E0C8010E946A094091CF
S1131380750350917603BC01C8010E946A0940911B
S1131390730350917403BC01C8010E94960945E08F
S11313A053E0BC01C8010E946A0940917103509145
S11313B07203BC01C8010E946A0948ED52E0BC01F5
S11313C0C8010E946A0976C000916F0310917003EE
S11313D042ED52E060E070E0C8010E946A09409169
S11313E0750350917603BC01C8010E946A094091BB
S11313F0730350917403BC01C8010E94960940EC28
S113140052E0BC01C8010E946A09409171035091E5
S11314107203BC01C8010E946A09E0907903F0904C
S11314207A03E114F10459F04DEB52E0BC01C80118
S11314300E946A09A701BC01C8010E946A0948E91F
S113144052E0BC01C8010E946A0947E852E0BC01AD
S1131450C8010E946A097C01A0917703B0917803C6
S1131460FD0101900020E9F731974AE0BE016F5F6A
S11314707F4FCF018A1B9B0B0E94171000916F03B3
S113148010917003AE014F5F5F4FB701C8010E9416
S1131490960941E552E0BC01C8010E946A094091E5
S11314A0770350917803BC01C8010E94960902C0D9
S11314B080E090E00F900F900F900F900F90DF91CD
S11314C0CF911F910F91FF90EF900895FF920F938A
S11314D01F93CF93DF93EC018B01F42E0E949208AB
S11314E08F2D80618FA784E0F81206C041E0B80117
S11314F0CE010E94E9080AC00115110511F401E0AA
S113150010E041E0B801CE010E94E908188A88E29F
S1131510898BCE010E94BA0884E088AB19AA42E004
S11315206CE170E0CE014A960E94A2079AAB8BABA5
S1131530BE0186E390E00E945406DF91CF911F9193
S11315400F91FF9008950F931F93CF93DF93EC01B6
S11315508B01CB018896988B898BCE010E94A508BC
S11315601AAA1BAAB801645E7F4F42E0CE014A96D4
S11315700E94A2079AAB8BABBE01C801C6960E941B
S11315805406DF91CF911F910F9108959C0161152D
S1131590710551F0FB01A3E9B3E06C5F7F4F9191BA
S11315A09D93E617F707D9F72115310519F0C901FD
S11315B00E9420080895909368038093730008950F
S11315C0CF93DF93EC010E949208188A8CE2898BF6
S11315D0CE010E94BA0882E18FA740E061E070E08A
S11315E0CE010E94E9081EA21FA28091770088A75D
S11315F019A68D5F8093770082E08EAB84E08FAB79
S113160085E088AF19AE80E68EA78AE088AB19AA78
S113161042E060E270E0CE014A960E94A2079AABD3
S11316208BABBE018AE390E00E945406DF91CF9118
S113163008950F931F93CF93DF93EC018B01609177
S113164066037091670340E00E94660A89E18FA7F0
S1131650B801CE010E94A30ADF91CF911F910F918F
S11316600895DC01FA016115710541F0680F791FD5
S113167084918D933196A617B707D1F70895AF9249
S1131680BF92CF92DF92EF92FF920F931F93CF936B
S1131690DF93EC01D62EC72E7A01B22EA32EF801C9
S11316A0AC0187E993E08E010A5F1F4FBF016A5FB7
S11316B07F4F2191DA012D93AD01DC012D91CD01F4
S11316C0D8012D938D01E617F70799F788E08C87E9
S11316D01D8644E253E069E070E0CE010E960E945C
S11316E0310B809172008B8B8F5F80937200188A0C
S11316F081E18F8BF7019E01225E3F4F83E993E0E6
S1131700BE01665E7F4FB4E0EB0EF11C4191D9013E
S11317104D939D01DC014D91CD01DB014D93BD0144
S1131720EE15FF0599F7ACA2BDA2CAA2DBA21EA2C8
S113173018A619A6DF91CF911F910F91FF90EF90FA
S1131740DF90CF90BF90AF9008950F931F93CF93E6
S1131750DF93EC018B01CB014C96898B988BCE01E6
S11317600E94A508C80108968FA39EA3B801605FD4
S11317707F4F41E0CE014A960E94A20789A798A70D
S1131780BE01C8018A960E945406DF91CF911F9131
S11317900F910895CF92DF92EF92FF920F931F93D0
S11317A0CF93DF936C0180919303882309F445C0A0
S11317B0F60107E913E096012A5F3F4FE901D801DA
S11317C04FEF41939D919993E217F307D1F77B0172
S11317D088E0E6018C8786E08D874CE153E068E081
S11317E070E0C6010E960E94310BC6014696F601C2
S11317F0B096D6019696E80129918E01EC012993C1
S1131800CE011192EA17FB07B1F7F70123E933E0A0
S1131810C6014C96D4E0ED0EF11C41914D93E901C3
S113182049919E01EC014993CE01EE15FF05A9F7FC
S1131830B6018AE290E00E945406DF91CF911F9195
S11318400F91FF90EF90DF90CF90089581E09091F9
S11318506A03923009F480E0089550939E03409304
S11318609D0321E020936A0360936903FC01ABE6C6
S1131870B3E0049621912D93E817F907D9F7089559
S1131880AF92BF92DF92EF92FF920F931F93CF9389
S1131890DF93EC01F62EE42ED52EE6E8F3E09C016E
S11318A087E993E05E0146E0A40EB11C0CE813E066
S11318B04191D9014D939D01DC017D91CD01D5016B
S11318C07D935D01E017F10799F788E08C871D8609
S11318D044E253E069E070E0CE010E960E94310BC1
S11318E08CE2898B809172008B8B8F5F8093720066
S11318F086E08F8BECE8F3E09E01225E3F4F83E9A4
S113190093E08E01065E1F4F580160E973E0419138
S1131910D9014D939D01DC014D91CD01D5014D932C
S11319205D01E617F70799F7CE010E94A508DCA22E
S1131930EDA28BE08AA3FBA2FE01B696CE018E96A1
S11319401192E817F907E1F78091770088A78D5F76
S11319508093770080E68EA782E08FA793E098AB10
S113196019AA1AAA1BAA1CAA1DAA8EAB94E09FABA3
S113197088AF8EEE89AF42E060E270E0C8010E9459
S1131980A2079AAB8BABBE018AE390E00E94540697
S1131990DF91CF911F910F91FF90EF90DF90BF9057
S11319A0AF9008950F931F939093820380938103C4
S11319B07093800360937F03F901ACE8B3E02C5F7C
S11319C03F4F81918D93E217F307D9F7F801A6E809
S11319D0B3E00A5F1F4F81918D93E017F107D9F7A8
S11319E0509384034093830381E080938503809123
S11319F090038F5F883018F48093900302C0109294
S1131A009003809190031F910F9108956F927F929C
S1131A108F929F92AF92BF92CF92DF92EF92FF92FA
S1131A200F931F93CF93DF934C015B016A0139013C
S1131A30E8010E944D068823F1F09092760380928B
S1131A407503B0927403A0927303D0927203C09290
S1131A50710310927D0370927C0360927B03870173
S1131A609E0140E550E061EA79E080E297E00E945F
S1131A70D20C80937E03DF91CF911F910F91FF9041
S1131A80EF90DF90CF90BF90AF909F908F907F901A
S1131A906F90089590939203809391030895DF9239
S1131AA0EF92FF920F931F93CF93DF938C01EB017F
S1131AB0209709F056C080916A03893079F48091A7
S1131AC0740090917500892BF9F40E944D068823C7
S1131AD029F06BE673E0C8010E94CA0B80916A0387
S1131AE0813091F40E944D06882371F06BE673E017
S1131AF0C8010E94CA0B80916A03886080936A03BC
S1131B001092750010927400809174009091750089
S1131B1001969093750080937400809185038130C1
S1131B2009F0A8C10E944D06882309F4A6C182E0E9
S1131B3080938503609176006F5F60937600409197
S1131B408303509184036F718091900320E2829FFC
S1131B50C0011124682BC8010E94400CE12CF12C17
S1131B60C0C10E944208882371F1D80155968C9116
S1131B70813019F4C8010E94FE0880916A0383FF32
S1131B807FC1F8018589823009F07DC144E050E0CD
S1131B906BE673E0C8014C960E94F10F892B09F0A3
S1131BA075C1A8014A5E5F4FE0919D03F0919E03C9
S1131BB0609169038BE693E0099582E080936A0360
S1131BC0E12CF12C8EC1BE01C8010E946808882353
S1131BD009F45FC1D80157968C9157978130A9F4C5
S1131BE092968C91883009F057C1E0919103F0915D
S1131BF09203309719F0C8014A960995BE01C801AD
S1131C000E943509E12CF12C6CC1C633D10508F4CE
S1131C1046C1863009F046C1F80184A18B3009F031
S1131C20F0C01093700300936F036CE873E0C80175
S1131C300E942B08882309F438C1D8019F96DC90B0
S1131C409F97D2FE17C0E0918103F09182033097F1
S1131C5059F095968C9120E030E040E050E063E04C
S1131C60829586958770099586E080938503E12C9B
S1131C70F12C37C1C8010E9452097C01809185036F
S1131C808230D9F59D2D90718D2D8271823119F597
S1131C9040E060E070E0C8010E94660A88E1F80153
S1131CA087A7E0917F03F0918003309741F0D8013A
S1131CB093968C91829586958770099502C080E0F1
S1131CC090E023E020938503BC01C8010E94A30A8D
S1131CD0E12CF12C06C181E080938503911104C0AD
S1131CE0B7016F5F7F4F02C060E070E044E0C8015D
S1131CF00E94660AE12CF12CF4C0833009F03FC045
S1131D00E114F10409F4E6C084E080938503E091D2
S1131D108103F0918203309709F456C0D8019E964E
S1131D204C9142954F70B4E04B9FA0011124CE0119
S1131D3008974E5D5F4F8417950708F4AC01C701FF
S1131D40840F951FC817D90720F49E01241B350B57
S1131D5001C09701D80195968C9160E08295869593
S1131D6087700995882359F049E0B701C8010E949A
S1131D70660A85E080938503E12CF12CB2C0809142
S1131D808503853051F4F80187A584FF91C086E06E
S1131D9080938503E12CF12CA4C08630A9F4D801EA
S1131DA09F968C9184FD04C0B7016F5F7F4F02C082
S1131DB060E070E044E0C8010E94660A87E0809316
S1131DC08503E12CF12C8DC0F80187A580FF0DC09F
S1131DD0B7016F5F7F4F41E0C8010E94660A85E04A
S1131DE080938503E12CF12C7CC0E114F10409F407
S1131DF062C040E0B701C8010E94660AE12CF12CE0
S1131E0070C090916803891359C095A180917300A3
S1131E10981357C0D7A4D1FE06C0C8010E94E00A97
S1131E20E12CF12C5EC0D4FE4FC0C8010E945209BF
S1131E307C019093670380936603892B49F4D0FE59
S1131E4050C040E060E070E0C8010E94660A49C0EA
S1131E50F801E6A4E694E694E694E694F4E0EF9EB2
S1131E607001112422E2E20EF11C2897CE15DF0541
S1131E7070F137C0E12CF12C34C0E12CF12C31C0CD
S1131E80E12CF12C2EC0E12CF12C2BC0E12CF12CF7
S1131E9028C0E12CF12C25C0E12CF12C22C0E12C2E
S1131EA0F12C1FC0E12CF12C1CC0E12CF12C19C029
S1131EB0E12CF12C16C0E12CF12C13C0E12CF12CF7
S1131EC010C0E12CF12C0DC0E12CF12C0AC0E12C46
S1131ED0F12C07C0D8019F968C9180FD79CFE12C1D
S1131EE0F12CC701DF91CF911F910F91FF90EF90DB
S1131EF0DF9008958F929F92AF92BF92CF92DF921C
S1131F00EF92FF920F931F93CF93DF937C01D22F15
S1131F10442359F16B014150842F90E001965B01F9
S1131F20A80EB91EC0E0802E912C87010C0F111D44
S1131F30F60181916F01A401B80190E00E940C1098
S1131F40F8018081882341F0CF5F87010C0F111DB8
S1131F50F80180818111F8CFDD2319F0F801D083D5
S1131F60CF5FCA14DB0409F701C0C0E0C150F70118
S1131F70EC0FF11D1082DF91CF911F910F91FF9013
S1131F80EF90DF90CF90BF90AF909F908F90089587
S1131F90FC0188279927E89421912032E9F329301C
S1131FA010F02E30C8F32B3241F02D3239F46894FE
S1131FB004C00E942210820F911D219120532A30C7
S1131FC0C0F31EF4909581959F4F08959927882713
S1131FD0089591110C94E60F803211F08930D1F7F5
S1131FE00895FB01DC0104C08D910190801921F456
S1131FF041505040C8F7881B990B0895FB01DC0140
S11320004150504030F08D910190801919F4002016
S1132010B9F7881B990B08954532510520F44230D5
S113202010F00C941710FB011082CB010895BB270C
S11320304A3031F4992322F4BDE2909581959F4F63
S11320400C942B107AE0979F902D879F802D910DF3
S113205011240895BB27FB015527AA27880F991F30
S1132060AA1FA41710F0A41B83955051B9F7A05DC3
S1132070AA3308F0A95DA193009779F7B111B19340
S11320801192CB010C944410DC01FC01672F719177
S11320907723E1F7329704C07C916D93708362914A
S10F20A0AE17BF07C8F30895F894FFCFF3
S11320ACC0A80101C0A8011D5455581000290808E6
S11320BC080802500100010A6C656E6B6572616E52
S11320CC697374656B2E636F6D0047455420002F44
S11320DC2000706173733D37733664370061646438
S10920EC726573733D00F0
S9030000FC
